{
  "_format": "hh-sol-artifact-1",
  "contractName": "FunWithStorage",
  "sourceName": "contracts/exampleContracts/FunWithStorage.sol",
  "abi": [
    {
      "inputs": [],
      "stateMutability": "nonpayable",
      "type": "constructor"
    },
    {
      "inputs": [],
      "name": "doStuff",
      "outputs": [],
      "stateMutability": "nonpayable",
      "type": "function"
    }
  ],
  "bytecode": "0x60a060405234801561001057600080fd5b50601960008190555060018060006101000a81548160ff021916908315150217905550600260de908060018154018082558091505060019003906000526020600020016000909190919091505560016003600080815260200190815260200160002060006101000a81548160ff021916908315150217905550607b6080818152505060805161011c6100aa6000396000505061011c6000f3fe6080604052348015600f57600080fd5b506004361060285760003560e01c8063874f33a114602d575b600080fd5b60336035565b005b6000600160005460449190605e565b90506000600160009054906101000a900460ff1690505050565b600060678260ad565b915060708360ad565b9250827fffffffffffffffffffffffffffffffffffffffffffffffffffffffffffffffff0382111560a25760a160b7565b5b828201905092915050565b6000819050919050565b7f4e487b7100000000000000000000000000000000000000000000000000000000600052601160045260246000fdfea2646970667358221220f7e8df6a57945dbe7413eb67266e1530f786a176ae3a75c626b7ac3ec2ae36b464736f6c63430008070033",
  "linkReferences": {},
  "deployedLinkReferences": {}
}