{"contracts/exampleContracts/FunWithStorage.sol":{"FunWithStorage":{"abi":[{"inputs":[],"stateMutability":"nonpayable","type":"constructor"},{"inputs":[],"name":"doStuff","outputs":[],"stateMutability":"nonpayable","type":"function"}],"devdoc":{"kind":"dev","methods":{},"version":1},"evm":{"bytecode":{"linkReferences":{},"object":"60a060405234801561001057600080fd5b50601960008190555060018060006101000a81548160ff021916908315150217905550600260de908060018154018082558091505060019003906000526020600020016000909190919091505560016003600080815260200190815260200160002060006101000a81548160ff021916908315150217905550607b6080818152505060805161011c6100aa6000396000505061011c6000f3fe6080604052348015600f57600080fd5b506004361060285760003560e01c8063874f33a114602d575b600080fd5b60336035565b005b6000600160005460449190605e565b90506000600160009054906101000a900460ff1690505050565b600060678260ad565b915060708360ad565b9250827fffffffffffffffffffffffffffffffffffffffffffffffffffffffffffffffff0382111560a25760a160b7565b5b828201905092915050565b6000819050919050565b7f4e487b7100000000000000000000000000000000000000000000000000000000600052601160045260246000fdfea2646970667358221220f7e8df6a57945dbe7413eb67266e1530f786a176ae3a75c626b7ac3ec2ae36b464736f6c63430008070033","opcodes":"PUSH1 0xA0 PUSH1 0x40 MSTORE CALLVALUE DUP1 ISZERO PUSH2 0x10 JUMPI PUSH1 0x0 DUP1 REVERT JUMPDEST POP PUSH1 0x19 PUSH1 0x0 DUP2 SWAP1 SSTORE POP PUSH1 0x1 DUP1 PUSH1 0x0 PUSH2 0x100 EXP DUP2 SLOAD DUP2 PUSH1 0xFF MUL NOT AND SWAP1 DUP4 ISZERO ISZERO MUL OR SWAP1 SSTORE POP PUSH1 0x2 PUSH1 0xDE SWAP1 DUP1 PUSH1 0x1 DUP2 SLOAD ADD DUP1 DUP3 SSTORE DUP1 SWAP2 POP POP PUSH1 0x1 SWAP1 SUB SWAP1 PUSH1 0x0 MSTORE PUSH1 0x20 PUSH1 0x0 KECCAK256 ADD PUSH1 0x0 SWAP1 SWAP2 SWAP1 SWAP2 SWAP1 SWAP2 POP SSTORE PUSH1 0x1 PUSH1 0x3 PUSH1 0x0 DUP1 DUP2 MSTORE PUSH1 0x20 ADD SWAP1 DUP2 MSTORE PUSH1 0x20 ADD PUSH1 0x0 KECCAK256 PUSH1 0x0 PUSH2 0x100 EXP DUP2 SLOAD DUP2 PUSH1 0xFF MUL NOT AND SWAP1 DUP4 ISZERO ISZERO MUL OR SWAP1 SSTORE POP PUSH1 0x7B PUSH1 0x80 DUP2 DUP2 MSTORE POP POP PUSH1 0x80 MLOAD PUSH2 0x11C PUSH2 0xAA PUSH1 0x0 CODECOPY PUSH1 0x0 POP POP PUSH2 0x11C PUSH1 0x0 RETURN INVALID PUSH1 0x80 PUSH1 0x40 MSTORE CALLVALUE DUP1 ISZERO PUSH1 0xF JUMPI PUSH1 0x0 DUP1 REVERT JUMPDEST POP PUSH1 0x4 CALLDATASIZE LT PUSH1 0x28 JUMPI PUSH1 0x0 CALLDATALOAD PUSH1 0xE0 SHR DUP1 PUSH4 0x874F33A1 EQ PUSH1 0x2D JUMPI JUMPDEST PUSH1 0x0 DUP1 REVERT JUMPDEST PUSH1 0x33 PUSH1 0x35 JUMP JUMPDEST STOP JUMPDEST PUSH1 0x0 PUSH1 0x1 PUSH1 0x0 SLOAD PUSH1 0x44 SWAP2 SWAP1 PUSH1 0x5E JUMP JUMPDEST SWAP1 POP PUSH1 0x0 PUSH1 0x1 PUSH1 0x0 SWAP1 SLOAD SWAP1 PUSH2 0x100 EXP SWAP1 DIV PUSH1 0xFF AND SWAP1 POP POP POP JUMP JUMPDEST PUSH1 0x0 PUSH1 0x67 DUP3 PUSH1 0xAD JUMP JUMPDEST SWAP2 POP PUSH1 0x70 DUP4 PUSH1 0xAD JUMP JUMPDEST SWAP3 POP DUP3 PUSH32 0xFFFFFFFFFFFFFFFFFFFFFFFFFFFFFFFFFFFFFFFFFFFFFFFFFFFFFFFFFFFFFFFF SUB DUP3 GT ISZERO PUSH1 0xA2 JUMPI PUSH1 0xA1 PUSH1 0xB7 JUMP JUMPDEST JUMPDEST DUP3 DUP3 ADD SWAP1 POP SWAP3 SWAP2 POP POP JUMP JUMPDEST PUSH1 0x0 DUP2 SWAP1 POP SWAP2 SWAP1 POP JUMP JUMPDEST PUSH32 0x4E487B7100000000000000000000000000000000000000000000000000000000 PUSH1 0x0 MSTORE PUSH1 0x11 PUSH1 0x4 MSTORE PUSH1 0x24 PUSH1 0x0 REVERT INVALID LOG2 PUSH5 0x6970667358 0x22 SLT KECCAK256 0xF7 0xE8 0xDF PUSH11 0x57945DBE7413EB67266E15 ADDRESS 0xF7 DUP7 LOG1 PUSH23 0xAE3A75C626B7AC3EC2AE36B464736F6C63430008070033 "},"gasEstimates":{"creation":{"codeDepositCost":"56800","executionCost":"infinite","totalCost":"infinite"},"external":{"doStuff()":"infinite"}},"methodIdentifiers":{"doStuff()":"874f33a1"}},"storageLayout":{"storage":[{"astId":364,"contract":"contracts/exampleContracts/FunWithStorage.sol:FunWithStorage","label":"favoriteNumber","offset":0,"slot":"0","type":"t_uint256"},{"astId":366,"contract":"contracts/exampleContracts/FunWithStorage.sol:FunWithStorage","label":"someBool","offset":0,"slot":"1","type":"t_bool"},{"astId":369,"contract":"contracts/exampleContracts/FunWithStorage.sol:FunWithStorage","label":"myArray","offset":0,"slot":"2","type":"t_array(t_uint256)dyn_storage"},{"astId":373,"contract":"contracts/exampleContracts/FunWithStorage.sol:FunWithStorage","label":"myMap","offset":0,"slot":"3","type":"t_mapping(t_uint256,t_bool)"}],"types":{"t_array(t_uint256)dyn_storage":{"base":"t_uint256","encoding":"dynamic_array","label":"uint256[]","numberOfBytes":"32"},"t_bool":{"encoding":"inplace","label":"bool","numberOfBytes":"1"},"t_mapping(t_uint256,t_bool)":{"encoding":"mapping","key":"t_uint256","label":"mapping(uint256 => bool)","numberOfBytes":"32","value":"t_bool"},"t_uint256":{"encoding":"inplace","label":"uint256","numberOfBytes":"32"}}},"userdoc":{"kind":"user","methods":{},"version":1}}}}